{
  "address": "0x66b70D7D3CA1F6c618799a342fD251EFCD83E62A",
  "abi": [
    {
      "inputs": [
        {
          "internalType": "address",
          "name": "_usdc",
          "type": "address"
        },
        {
          "internalType": "address",
          "name": "_flewPayToken",
          "type": "address"
        }
      ],
      "stateMutability": "nonpayable",
      "type": "constructor"
    },
    {
      "anonymous": false,
      "inputs": [
        {
          "indexed": true,
          "internalType": "address",
          "name": "previousOwner",
          "type": "address"
        },
        {
          "indexed": true,
          "internalType": "address",
          "name": "newOwner",
          "type": "address"
        }
      ],
      "name": "OwnershipTransferStarted",
      "type": "event"
    },
    {
      "anonymous": false,
      "inputs": [
        {
          "indexed": true,
          "internalType": "address",
          "name": "previousOwner",
          "type": "address"
        },
        {
          "indexed": true,
          "internalType": "address",
          "name": "newOwner",
          "type": "address"
        }
      ],
      "name": "OwnershipTransferred",
      "type": "event"
    },
    {
      "anonymous": false,
      "inputs": [
        {
          "indexed": true,
          "internalType": "address",
          "name": "user",
          "type": "address"
        },
        {
          "indexed": false,
          "internalType": "uint256",
          "name": "usdcAmount",
          "type": "uint256"
        },
        {
          "indexed": false,
          "internalType": "uint256",
          "name": "flewPayTokenAmount",
          "type": "uint256"
        }
      ],
      "name": "Swap",
      "type": "event"
    },
    {
      "anonymous": false,
      "inputs": [
        {
          "indexed": false,
          "internalType": "uint256",
          "name": "feePercentage",
          "type": "uint256"
        },
        {
          "indexed": false,
          "internalType": "uint256",
          "name": "maxDailySwapLimit",
          "type": "uint256"
        }
      ],
      "name": "SwapParametersUpdated",
      "type": "event"
    },
    {
      "inputs": [],
      "name": "MIN_SWAP_AMOUNT",
      "outputs": [
        {
          "internalType": "uint256",
          "name": "",
          "type": "uint256"
        }
      ],
      "stateMutability": "view",
      "type": "function"
    },
    {
      "inputs": [],
      "name": "acceptOwnership",
      "outputs": [],
      "stateMutability": "nonpayable",
      "type": "function"
    },
    {
      "inputs": [
        {
          "internalType": "uint256",
          "name": "usdcAmount",
          "type": "uint256"
        }
      ],
      "name": "calculateTokenAmount",
      "outputs": [
        {
          "internalType": "uint256",
          "name": "",
          "type": "uint256"
        }
      ],
      "stateMutability": "view",
      "type": "function"
    },
    {
      "inputs": [],
      "name": "currentDailySwapTotal",
      "outputs": [
        {
          "internalType": "uint256",
          "name": "",
          "type": "uint256"
        }
      ],
      "stateMutability": "view",
      "type": "function"
    },
    {
      "inputs": [
        {
          "internalType": "uint256",
          "name": "usdcAmount",
          "type": "uint256"
        }
      ],
      "name": "depositAndSwap",
      "outputs": [],
      "stateMutability": "nonpayable",
      "type": "function"
    },
    {
      "inputs": [
        {
          "internalType": "uint256",
          "name": "amount",
          "type": "uint256"
        }
      ],
      "name": "emergencyWithdrawUSDC",
      "outputs": [],
      "stateMutability": "nonpayable",
      "type": "function"
    },
    {
      "inputs": [],
      "name": "flewPayToken",
      "outputs": [
        {
          "internalType": "contract FlewPayToken",
          "name": "",
          "type": "address"
        }
      ],
      "stateMutability": "view",
      "type": "function"
    },
    {
      "inputs": [],
      "name": "lastSwapTimestamp",
      "outputs": [
        {
          "internalType": "uint256",
          "name": "",
          "type": "uint256"
        }
      ],
      "stateMutability": "view",
      "type": "function"
    },
    {
      "inputs": [],
      "name": "maxDailySwapLimit",
      "outputs": [
        {
          "internalType": "uint256",
          "name": "",
          "type": "uint256"
        }
      ],
      "stateMutability": "view",
      "type": "function"
    },
    {
      "inputs": [],
      "name": "owner",
      "outputs": [
        {
          "internalType": "address",
          "name": "",
          "type": "address"
        }
      ],
      "stateMutability": "view",
      "type": "function"
    },
    {
      "inputs": [],
      "name": "pendingOwner",
      "outputs": [
        {
          "internalType": "address",
          "name": "",
          "type": "address"
        }
      ],
      "stateMutability": "view",
      "type": "function"
    },
    {
      "inputs": [
        {
          "internalType": "address",
          "name": "tokenAddress",
          "type": "address"
        },
        {
          "internalType": "uint256",
          "name": "amount",
          "type": "uint256"
        }
      ],
      "name": "recoverERC20",
      "outputs": [],
      "stateMutability": "nonpayable",
      "type": "function"
    },
    {
      "inputs": [],
      "name": "renounceOwnership",
      "outputs": [],
      "stateMutability": "nonpayable",
      "type": "function"
    },
    {
      "inputs": [],
      "name": "swapFeePercentage",
      "outputs": [
        {
          "internalType": "uint256",
          "name": "",
          "type": "uint256"
        }
      ],
      "stateMutability": "view",
      "type": "function"
    },
    {
      "inputs": [
        {
          "internalType": "address",
          "name": "newOwner",
          "type": "address"
        }
      ],
      "name": "transferOwnership",
      "outputs": [],
      "stateMutability": "nonpayable",
      "type": "function"
    },
    {
      "inputs": [
        {
          "internalType": "uint256",
          "name": "_newFeePercentage",
          "type": "uint256"
        },
        {
          "internalType": "uint256",
          "name": "_newDailySwapLimit",
          "type": "uint256"
        }
      ],
      "name": "updateSwapParameters",
      "outputs": [],
      "stateMutability": "nonpayable",
      "type": "function"
    },
    {
      "inputs": [],
      "name": "usdc",
      "outputs": [
        {
          "internalType": "contract IERC20",
          "name": "",
          "type": "address"
        }
      ],
      "stateMutability": "view",
      "type": "function"
    }
  ],
  "transactionHash": "0x057902b5f2a2db1b262684c7239753ab62e42b6a03b29133991a1cd3d1f51dd1",
  "args": [
    "0x5e7fE0fDda1b929D1Db6FD5EEa44524034F813F7",
    "0xAc8068cb6B648E999B7413E250A6882E909b1F12"
  ],
  "numDeployments": 1,
  "solcInputHash": "bfaa2c073d35dbbd38782b4ad9dad977",
  "bytecode": "0x6080604052600160055534801561001557600080fd5b50604051610e4f380380610e4f83398101604081905261003491610104565b61003d3361007c565b6001600255600380546001600160a01b039384166001600160a01b0319918216179091556004805492909316911617905564174876e800600655610137565b600180546001600160a01b031916905561009581610098565b50565b600080546001600160a01b038381166001600160a01b0319831681178455604051919092169283917f8be0079c531659141344cd1fd0a4f28419497f9722a3daafe3b4186f6b6457e09190a35050565b80516001600160a01b03811681146100ff57600080fd5b919050565b6000806040838503121561011757600080fd5b610120836100e8565b915061012e602084016100e8565b90509250929050565b610d09806101466000396000f3fe608060405234801561001057600080fd5b506004361061010b5760003560e01c80638980f11f116100a2578063a24bcf4611610071578063a24bcf46146101e2578063a4ac0d49146101f5578063c3520788146101fe578063e30c397814610211578063f2fde38b1461022257600080fd5b80638980f11f146101a15780638da5cb5b146101b457806399f34c12146101c55780639c406f94146101cf57600080fd5b8063715018a6116100de578063715018a614610175578063758c6c9d1461017d57806379ba5097146101865780637cf449121461018e57600080fd5b80630d3da777146101105780631bcbfe7d146101255780631df34d81146101415780633e413bee1461014a575b600080fd5b61012361011e366004610b81565b610235565b005b61012e60075481565b6040519081526020015b60405180910390f35b61012e60065481565b60035461015d906001600160a01b031681565b6040516001600160a01b039091168152602001610138565b610123610322565b61012e60085481565b610123610336565b60045461015d906001600160a01b031681565b6101236101af366004610bbf565b6103b0565b6000546001600160a01b031661015d565b61012e620f424081565b6101236101dd366004610be9565b6104a6565b61012e6101f0366004610be9565b610882565b61012e60055481565b61012361020c366004610be9565b6108fc565b6001546001600160a01b031661015d565b610123610230366004610c02565b6109f6565b61023d610a67565b600a82111561028b5760405162461bcd60e51b81526020600482015260156024820152744665652063616e6e6f74206578636565642031302560581b60448201526064015b60405180910390fd5b600081116102db5760405162461bcd60e51b815260206004820152601c60248201527f4461696c79206c696d6974206d75737420626520706f736974697665000000006044820152606401610282565b6005829055600681905560408051838152602081018390527f22bb5dbfd0ca1f878751acc30c79dcbc8dd7ab3915c96949d5443c2c83e8b729910160405180910390a15050565b61032a610a67565b6103346000610ac1565b565b60015433906001600160a01b031681146103a45760405162461bcd60e51b815260206004820152602960248201527f4f776e61626c6532537465703a2063616c6c6572206973206e6f7420746865206044820152683732bb9037bbb732b960b91b6064820152608401610282565b6103ad81610ac1565b50565b6103b8610a67565b6103c0610ada565b816001600160a01b03811663a9059cbb6103e26000546001600160a01b031690565b6040516001600160e01b031960e084901b1681526001600160a01b039091166004820152602481018590526044016020604051808303816000875af115801561042f573d6000803e3d6000fd5b505050506040513d601f19601f820116820180604052508101906104539190610c1d565b6104975760405162461bcd60e51b8152602060048201526015602482015274151bdad95b881c9958dbdd995c9e4819985a5b1959605a1b6044820152606401610282565b506104a26001600255565b5050565b6104ae610ada565b620f42408110156104f75760405162461bcd60e51b81526020600482015260136024820152725377617020616d6f756e7420746f6f206c6f7760681b6044820152606401610282565b62015180600854426105099190610c55565b1115610519576000600755426008555b6006548160075461052a9190610c6e565b11156105785760405162461bcd60e51b815260206004820152601960248201527f4461696c792073776170206c696d6974206578636565646564000000000000006044820152606401610282565b6003546040516370a0823160e01b815233600482015282916001600160a01b0316906370a0823190602401602060405180830381865afa1580156105c0573d6000803e3d6000fd5b505050506040513d601f19601f820116820180604052508101906105e49190610c81565b10156106325760405162461bcd60e51b815260206004820152601960248201527f496e73756666696369656e7420555344432062616c616e6365000000000000006044820152606401610282565b600354604051636eb1769f60e11b815233600482015230602482015282916001600160a01b03169063dd62ed3e90604401602060405180830381865afa158015610680573d6000803e3d6000fd5b505050506040513d601f19601f820116820180604052508101906106a49190610c81565b10156106f25760405162461bcd60e51b815260206004820152601b60248201527f496e73756666696369656e74205553444320616c6c6f77616e636500000000006044820152606401610282565b6003546040516323b872dd60e01b8152336004820152306024820152604481018390526001600160a01b03909116906323b872dd906064016020604051808303816000875af1158015610749573d6000803e3d6000fd5b505050506040513d601f19601f8201168201806040525081019061076d9190610c1d565b6107b05760405162461bcd60e51b81526020600482015260146024820152731554d110c81d1c985b9cd9995c8819985a5b195960621b6044820152606401610282565b60006107bb82610882565b600480546040516340c10f1960e01b81523392810192909252602482018390529192506001600160a01b03909116906340c10f1990604401600060405180830381600087803b15801561080d57600080fd5b505af1158015610821573d6000803e3d6000fd5b5050505081600760008282546108379190610c6e565b9091555050604080518381526020810183905233917f77f92a1b6a1a11de8ca49515ad4c1fad45632dd3442167d74b90b304a3c7a758910160405180910390a2506103ad6001600255565b6000620f42408210156108cd5760405162461bcd60e51b81526020600482015260136024820152725377617020616d6f756e7420746f6f206c6f7760681b6044820152606401610282565b60006064600554846108df9190610c9a565b6108e99190610cb1565b90506108f58184610c55565b9392505050565b610904610a67565b61090c610ada565b6003546001600160a01b031663a9059cbb61092f6000546001600160a01b031690565b6040516001600160e01b031960e084901b1681526001600160a01b039091166004820152602481018490526044016020604051808303816000875af115801561097c573d6000803e3d6000fd5b505050506040513d601f19601f820116820180604052508101906109a09190610c1d565b6109ec5760405162461bcd60e51b815260206004820152601960248201527f456d657267656e6379207769746864726177206661696c6564000000000000006044820152606401610282565b6103ad6001600255565b6109fe610a67565b600180546001600160a01b0383166001600160a01b03199091168117909155610a2f6000546001600160a01b031690565b6001600160a01b03167f38d16b8cac22d99fc7c124b9cd0de2d3fa1faef420bfe791d8c362d765e2270060405160405180910390a350565b6000546001600160a01b031633146103345760405162461bcd60e51b815260206004820181905260248201527f4f776e61626c653a2063616c6c6572206973206e6f7420746865206f776e65726044820152606401610282565b600180546001600160a01b03191690556103ad81610b31565b6002805403610b2b5760405162461bcd60e51b815260206004820152601f60248201527f5265656e7472616e637947756172643a207265656e7472616e742063616c6c006044820152606401610282565b60028055565b600080546001600160a01b038381166001600160a01b0319831681178455604051919092169283917f8be0079c531659141344cd1fd0a4f28419497f9722a3daafe3b4186f6b6457e09190a35050565b60008060408385031215610b9457600080fd5b50508035926020909101359150565b80356001600160a01b0381168114610bba57600080fd5b919050565b60008060408385031215610bd257600080fd5b610bdb83610ba3565b946020939093013593505050565b600060208284031215610bfb57600080fd5b5035919050565b600060208284031215610c1457600080fd5b6108f582610ba3565b600060208284031215610c2f57600080fd5b815180151581146108f557600080fd5b634e487b7160e01b600052601160045260246000fd5b81810381811115610c6857610c68610c3f565b92915050565b80820180821115610c6857610c68610c3f565b600060208284031215610c9357600080fd5b5051919050565b8082028115828204841417610c6857610c68610c3f565b600082610cce57634e487b7160e01b600052601260045260246000fd5b50049056fea26469706673582212201b69fa523fe28b1e3eeed5521278bc3fa5c9991fbd730e27689b15bffd33653764736f6c63430008180033",
  "devdoc": {
    "kind": "dev",
    "methods": {
      "acceptOwnership()": {
        "details": "The new owner accepts the ownership transfer."
      },
      "owner()": {
        "details": "Returns the address of the current owner."
      },
      "pendingOwner()": {
        "details": "Returns the address of the pending owner."
      },
      "renounceOwnership()": {
        "details": "Leaves the contract without owner. It will not be possible to call `onlyOwner` functions. Can only be called by the current owner. NOTE: Renouncing ownership will leave the contract without an owner, thereby disabling any functionality that is only available to the owner."
      },
      "transferOwnership(address)": {
        "details": "Starts the ownership transfer of the contract to a new account. Replaces the pending transfer if there is one. Can only be called by the current owner."
      }
    },
    "version": 1
  },
  "userdoc": {
    "kind": "user",
    "methods": {},
    "version": 1
  },
  "storageLayout": {
    "storage": [
      {
        "astId": 396,
        "contract": "contracts/FlewPayBridge.sol:FlewPayBridge",
        "label": "_owner",
        "offset": 0,
        "slot": "0",
        "type": "t_address"
      },
      {
        "astId": 509,
        "contract": "contracts/FlewPayBridge.sol:FlewPayBridge",
        "label": "_pendingOwner",
        "offset": 0,
        "slot": "1",
        "type": "t_address"
      },
      {
        "astId": 728,
        "contract": "contracts/FlewPayBridge.sol:FlewPayBridge",
        "label": "_status",
        "offset": 0,
        "slot": "2",
        "type": "t_uint256"
      },
      {
        "astId": 4010,
        "contract": "contracts/FlewPayBridge.sol:FlewPayBridge",
        "label": "usdc",
        "offset": 0,
        "slot": "3",
        "type": "t_contract(IERC20)1447"
      },
      {
        "astId": 4013,
        "contract": "contracts/FlewPayBridge.sol:FlewPayBridge",
        "label": "flewPayToken",
        "offset": 0,
        "slot": "4",
        "type": "t_contract(FlewPayToken)4456"
      },
      {
        "astId": 4023,
        "contract": "contracts/FlewPayBridge.sol:FlewPayBridge",
        "label": "swapFeePercentage",
        "offset": 0,
        "slot": "5",
        "type": "t_uint256"
      },
      {
        "astId": 4025,
        "contract": "contracts/FlewPayBridge.sol:FlewPayBridge",
        "label": "maxDailySwapLimit",
        "offset": 0,
        "slot": "6",
        "type": "t_uint256"
      },
      {
        "astId": 4027,
        "contract": "contracts/FlewPayBridge.sol:FlewPayBridge",
        "label": "currentDailySwapTotal",
        "offset": 0,
        "slot": "7",
        "type": "t_uint256"
      },
      {
        "astId": 4029,
        "contract": "contracts/FlewPayBridge.sol:FlewPayBridge",
        "label": "lastSwapTimestamp",
        "offset": 0,
        "slot": "8",
        "type": "t_uint256"
      }
    ],
    "types": {
      "t_address": {
        "encoding": "inplace",
        "label": "address",
        "numberOfBytes": "20"
      },
      "t_contract(FlewPayToken)4456": {
        "encoding": "inplace",
        "label": "contract FlewPayToken",
        "numberOfBytes": "20"
      },
      "t_contract(IERC20)1447": {
        "encoding": "inplace",
        "label": "contract IERC20",
        "numberOfBytes": "20"
      },
      "t_uint256": {
        "encoding": "inplace",
        "label": "uint256",
        "numberOfBytes": "32"
      }
    }
  }
}